:020000040000FA
:040000001FD00ED02F
:0400080004EF04F00D
:040018000CEF04F0F5
:10002000A66E05A01200550EA76EAA0EA76EA68298
:100030000000A6B2FED712000A26D8B00B2A120082
:10004000A66AA968AA68A680A83C00EF04F0066A20
:100050001C0E056E0F019394000E006F080E016FC9
:10006000E81E056F000E026F070E036FFF0E186F7C
:10007000EB0E196FFF0E1A6FF80E1B6F030E706EEA
:100080009E0E716E030E726E200E736E6F6A0E0EF0
:10009000C16E939E939C818E818C609E040060AEA5
:1000A000FDD70FEE66F065500F0B096EF46EF5E0AC
:1000B00064B02BD010EE01F0EECFE6FFF42EFCD7AB
:1000C0000650EBE0010AD8A407D0A968AA68A86A7C
:1000D000040EA6DF819CFF000650020A05E10B6AB0
:1000E0000A6A0C900C6AD9D70650030A0AE1075035
:1000F0000A2606E108500B2203E10CB001D073D0B0
:1001000076D00650040AC9E176D00350F86EF00BA1
:10011000F36E0250F76EAA6E0150F66EA96E05A638
:1001200005D009500126E86A02220322300EF3604E
:1001300001D008D0F350300A01E12AD0F350F00A80
:10014000ACE132D005A405D0F6503F0B02E1940E8D
:1001500067DF05B2A2D7F650070B9FE1080EF46ED9
:10016000EE50F56E69DF0D00F42EFAD7080EF46E2E
:100170000A00ED50F42EFCD7840E52DF080EF46E08
:100180000900F550EE18D8A40C80F42EF9D785D7C5
:10019000EF50F56E51DF0C00C40E42DF0900F55040
:1001A000EE18F42EF5D779D7EF50A86E45DF040E80
:1001B00037DFA66AA680A850EE18D8A40C80A94AFA
:1001C000AA2AF42EF1D769D740B7FED7800E416F27
:1001D000080E426F000E436F040E446F448164A00A
:1001E000449140875AD7010E466F456FEDD7466B55
:1001F000010E456FE9D7020E466F010E456FE4D739
:060800000000AFEF07F05D
:0408080020EF04F0E9
:0C08100041434538432020009CEF04F0D9
:10082000A56E05200209020B01010008000000006E
:100830000000010000000000140010080000870103
:100840006FCF0AF06ECF0BF0E9CF05F0EACF06F0DC
:10085000E1CF07F0E2CF08F0080EFA6E0B500E0B56
:10086000F92637D012D035D034D033D002D006D0CC
:1008700030D0A49200EE25F056EF04F0A49013B20D
:100880003FD000EE25F056EF04F00F0130AB08D05A
:10089000185206E0182E04D030973F0E31173087DB
:1008A000509F0001609E749E749C14D06F50F10B99
:1008B0006F6E0B500E0B6F121FEE60F0E650EE6E77
:1008C0006E0EE162FBD7609E2ABC12D02A5201E074
:1008D0001380609EA46A6F50F10B0A106F6E05C002
:1008E000E9FF06C0EAFF07C0E1FF08C0E2FF110010
:1008F00013B2EFD70F0120B7FED720870001E9D749
:100900006566E7D76138E832780B196E6238E842DD
:10091000070B1910126E10EE58F0546A5480080E2E
:10092000126403D0125EE12AFBD7124E02D0544665
:10093000FCD75450E712CDD7006ED8CF01F0E0CFEE
:1009400002F0C00ECE6E9E6A7B5101E07B078250A2
:100950006919711942E0726F711B72A106D06B5157
:1009600071B16C516AA1020E736F72A306D06B5104
:1009700071B36C516AA3020E746F72A506D06B51ED
:1009800071B56C516AA5020E756F72A706D06B51D6
:1009900071B76C516AA7020E766F72A906D06B51BF
:1009A00071B96C516AA9020E776F72AB06D06B51A8
:1009B00071BB6C516AAB020E786F72AD06D06B5191
:1009C00071BD6C516AAD020E796F72AF06D06B517A
:1009D00071BF6C516AAF020E7A6F735105E0732FCD
:1009E00003D01B9071B11B80745105E0742F03D0AC
:1009F0001B9271B31B82755105E0752F03D01B94B8
:100A000071B51B84765105E0762F03D01B9671B724
:100A10001B86775105E0772F03D01B9871B91B888F
:100A2000785105E0782F03D01B9A71BB1B8A79514E
:100A300005E0792F03D01B9C71BD1B8C7A5105E01A
:100A40007A2F03D01B9E71BF1B8E02C0E0FF0050A7
:100A500001C0D8FF100024B205D0A1A202D0817E2F
:100A6000A1920DD0F2A40BD013A401D0817CF294FA
:100A700013A605D0172E03D00A0E176E520E81B0A2
:100A800067D0640E146E156A166A162E45EF05F0CF
:100A900013A404D0F2A402D0817CF294152E45EF69
:100AA00005F081B040D0142E45EF05F024A255D0BA
:100AB000136A819C818EF26A010E126E010EA96E7C
:100AC000000E05EC09F0510E9EEC08F0106A116A58
:100AD00081A0FED785EC0DF081A0FAD7020EA96E99
:100AE000000E05EC09F0A92A000E05EC09F024A27D
:100AF0000DD0010EA96E000E05EC09F0136A2492C8
:100B0000819C818EC00EF26E2BEF05F0010EA96E56
:100B1000010E05EC09F0248231EC0DF013929DECEE
:100B200008F013841DD013A40CD01394818C520EA2
:100B30009EEC08F0010EA96E080E136E05EC09F08C
:100B400007D0138431EC0DF013929DEC08F008D01F
:100B500013A206D01392138403D01382819EB8D7B8
:100B600013B034D0F2D18CEF06F013A897D0138ACB
:100B700018D113A893D0138C14D1B8EC0BF0000843
:100B800021E14AEC0CF08AD013A488D0500E4C6EB0
:100B9000030E236E7BEC0BF081D0B8EC0BF0000859
:100BA00011E156EC0CF07AD013A478D099EC0CF04B
:100BB00075D010501124D8A40DEC0DF06FD02C6A14
:100BC0002D6AAAD088EF06F0A0EF06F0900E2B5CFD
:100BD000CAE0910E2B5CC7E0920E2B5CC4E0980E2D
:100BE0002B5CEDE0990E2B5CEAE09A0E2B5CE7E0C3
:100BF0005C0E2B5C49E0730E2B5C53E00D0E2B5CFE
:100C0000D8E024A24BD0420E2B5C5FE0100E2B5C90
:100C1000DBE0110E2B5CC8E0530E2B5C66E0540E3B
:100C20002B5C69E0550E2B5C6DE0560E2B5C5BE097
:100C3000D20E2B5C7BE0950E2B5C97E0B20E2B5C0A
:100C400098E0710E2B5C1CE0960E2B5C7FE0570E3B
:100C50002B5C18E0720E2B5C6CE0580E2B5C0AE0EB
:100C60009C0E2B5C9AE05D0E2B5C08E0750E2B5CF5
:100C700003E014D0BDEF05F058EF06F0FDEF06F0ED
:100C8000AFEF06F0B6EF06F0B8EC0BF0000840E16D
:100C9000FF0EA96EFF0E05EC09F0FF0013902BEF7D
:100CA00005F0B8EC0BF0000833E1AFEC0CF0F6D730
:100CB000B8EC0BF000082CE12EC012F067EC0DF040
:100CC000520E9EEC08F04EEF06F013A4E7D752EC5C
:100CD00008F013941386819E0A0E176E520E9EEC36
:100CE00008F0818CDBD7C0EF06F0B8EC0BF0000801
:100CF0000FE11388D3D7B8EC0BF0000809E1139883
:100D0000139ACCD7B8EC0BF0000802E1D0EC0BF052
:100D1000C5D7020E1DEF0DF024A205D0E0EC09F0BE
:100D200000082BE0BBD780A83CD0F8D713B839D047
:100D3000B5D7B8EC0BF00008EBE123EC0CF0AED724
:100D400013B401D0ABD783EC0CF0A8D7B8EC0BF000
:100D50000008DEE18AEC0BF0C6EC08F09FD7B8EC97
:100D60000BF00008D5E19CEC0BF098D7B8EC0BF039
:100D70000008CEE1F2EC0BF091D71EEC0AF08ED712
:100D8000B8EC0BF00008C4E1050EA96E00EC09F008
:100D900020084F6E700E4C6E040E236E7BEC0BF031
:100DA0007DD724A20AD0D20E2B5C07E0950E2B5CD7
:100DB00004E0B20E2B5E01E078D0E0EC09F0000810
:100DC00015E024B207D080AA70D0A3EC09F0000887
:100DD0003BE06BD013BC27D013BA66D0A3EC09F06C
:100DE000000832E0040E29EC0DF05ED024B202D0EF
:100DF00080AA65D013AA2FD062D0B8EC0BF00008FF
:100E000009E131EC0DF0520E9EEC08F0080E136E65
:100E10004EEF06F088EF06F03DC051F0512AA68053
:100E2000A8CF52F002D0516A526AD30E4C6E2CC039
:100E30004DF02DC04EF02EC04FF02FC050F0070ED9
:100E4000236E7FEC0BF030D024B211D0050EA96ECA
:100E5000A680A804386E24B20FD03844860FA96E3D
:100E6000A680EEEC0BF03D5005EC09F01ED0050E0F
:100E7000A96EA680A804386E30C03DF03D5219E03E
:100E80003D06020E3D6015D031C03FF03844860F5C
:100E9000A96E3D50A92613BCBFD73F5005EC09F001
:100EA000A8EC08F002D01398139C1390FA6A4EEF46
:100EB00006F0516A526A060E29EC0DF0B6D7050EFF
:100EC000A96EA680A8CF3AF0A8CF3BF03A463A46A2
:100ED000060E3A26040E3A26384638460A0E3824BC
:100EE000A96EA680A850A906A906A906A90605EC20
:100EF00009F0050EA9263A50A962F3D738423B46BD
:100F0000860E3B26020E3B26880E3824A96EA6804C
:100F1000A850A906A90605EC09F0030EA9263B5026
:100F2000A962F5D7050EA96EA680A850196E1904FE
:100F300005EC09F0C0EC0BF024B203D0B190A19203
:100F4000819E139AA8EC08F0AED724A204D013A671
:100F500004D013B402D018EC09F02BEF05F0F26ABC
:100F6000C26A0F0EC16E3F0E926E3B0E936E819C55
:100F7000819E8184FF0E946ED08EE06AA66A136A09
:100F8000186A776A6F8E030E706E9E0E716E030E76
:100F9000726E200E736E240E606E0F01200E506F65
:100FA000016B056B00010FEE18F0EE6A200EE9628E
:100FB000FCD76F6ABD6A840ED56E810ECD6E630E4E
:100FC000CF6E466A230EA56E9F6AA26AA06A010EC2
:100FD0009D6E010E126EF16AF06A230EA36E9E6A78
:100FE000A16A0F01509F0001609E749E749CA46AC8
:100FF000C6EC08F082506919216E1D6E716F1B6E70
:101000001C6A1E6AC80E7B6F246A010EA96E00EC72
:1010100009F0136E000801E10ED024827BEC08F089
:10102000C0EC0BF0C6EC08F0C00EF26E819E818C15
:1010300013902BEF05F00F0E8014196E120E811411
:101040001A6E1A461AB41A881A1C300B1910010F9E
:10105000226E106A116E249081AA2480249265EC7D
:1010600008F080A837EF08F080AAD0EC0BF0C0ECB5
:101070000BF0C00EF26E819C818E2BEF05F000EE1E
:1010800046F01FEE30F00F0130B7FED70001EE50F2
:10109000E66E540EE962FBD70F0130B7FED73087FA
:1010A000000112002CC010F02DC011F0020EA96E2C
:1010B0002C5005EC09F0A92A2D5005EC09F0010E81
:1010C000A96E090E05EC09F012000D6EAAEC08F0ED
:1010D000F00E47160E5047120F50486E0F0120B702
:1010E000FED7216B0E50216F0F50226FB00E2113CF
:1010F000256B00011200000EA96EA680A8500D6E8F
:10110000AAEC08F0F00E47160E5047120F50486E2A
:10111000020EA96E00EC09F0106EA92A00EC09F08D
:10112000116E0F012097216B0E50216F0F50226F0F
:10113000B00E2113256B00011200500E4C6E10C032
:101140004DF011C04EF0030E236E7BEC0BF012003D
:10115000590EF4D70DC00FF00F3A0F44E00B0F6E8D
:101160000DC00EF00E420E420E400F0B0E6E12001E
:1011700027C00FF00F3A0F40070B0F6E26C00EF07E
:101180000E460E460E44780B0F101200C60EA96EC6
:10119000A680A850686FA92AA680A850696FA92ABE
:1011A000A680A8506A6FA92AA680A8506B6F6B4BC7
:1011B0006B07020E6B656B6FA92AA680A8506C6F37
:1011C0006C4B6C07020E6C656C6FA92AA680A85048
:1011D0006D6FA92AA680A8506E6FA92AA680A85074
:1011E0006F6FA92AA680A850706FA92A736B746BC1
:1011F000756B766B776B786B796B7A6B126A120012
:10120000A69EA69CA680A8501200A86EA69EA69C8C
:10121000A684F2CF0CF0F26A550EA76EAA0EA76E46
:10122000A682A6B2FED7A198A6940CC0F2FF120027
:101230001B5021186BE01E6E211A1B50E81E6D1505
:101240001E141C1A1B506D151E14E81E1E161C5071
:10125000E81E6D151D6E6D51E81E1B141D127B518D
:1012600055E16E5119E0900E4C6E6E2905E01E148A
:1012700013E01B1401E04C2A1B50506E020E4F6EFF
:1012800010C04DF011C04EF0050E236E0A0E186E00
:101290007BEC0BF07CEC0DF0206A1F6A1F80D8906D
:1012A0001E3204E2202A1F3631E2F9D724A20AD0E6
:1012B000249024B403D0C6EC08F024841F50681591
:1012C00001E024800BEC0AF0000825E020C050F07B
:1012D000502A900E4C6E1D501F1419E024B0DFD719
:1012E0004C804F6A10C04DF011C04EF0050E236EB9
:1012F0000F0E4716B00E47120A0E186E7BEC0BF05D
:10130000202A1F3603E27CEC0DF0C9D712004C9066
:10131000E8D700001200060EA96ED890384638446F
:10132000020FA92600EC09F04F6EA92A00EC09F083
:10133000506E980E4C6E1D501F14D4E024A001D0A6
:10134000AED74C80CFD724B202D080AA1200050EAF
:10135000A96EA680A850386E200E3860010C01EEF0
:1013600000F03846384638502CC0EBFF010F2DC036
:10137000EBFF010F2EC0EBFF010F2FC0EBFF060E9E
:101380003824A96E2C5005EC09F0A92A2D5005EC43
:1013900009F0A92A2E5005EC09F0A92A2F5005ECD6
:1013A00009F0050EA96EA680A850010F196E05EC74
:1013B00009F024B204D0200E195C01E1010C000CEC
:1013C00001EE00F0050EA96EA680A850146E14520E
:1013D00021E0386A366AEE502C62362AEE502D62D1
:1013E000362AEE502E62362AEE502F62362A3666A4
:1013F0000CD03844860FA96EA990A680A8503D6EE7
:10140000A92AA680A8503F6E000C145203E01406CF
:10141000382AE0D7010C20C044F04486386A200EF8
:10142000146E860EA96E00EC09F0445C06E0382AC2
:10143000A92AA92A142EF7D7010C000C3DB61FD1FA
:10144000910E2B5C09E0990E2B5C06E0000E3D5CD2
:1014500006E0010E3D5C01E012001BEF0BF07CEC9E
:101460000DF0206A050E236E2B50346E920E345C04
:1014700006E09A0E345C06E1900E346E05D0930EB1
:10148000346E02D0900E346E34C04CF04F6A20C0DF
:1014900050F0502A1DB04C2A0BEC0AF0006E02E10D
:1014A000DEEC0BF0202A6FB10AD06DB108D068A134
:1014B00002D01DB004D07BEC0BF07CEC0DF04F6A39
:1014C00034C04CF01DB24C2A20C050F0502A0BEC16
:1014D0000AF0006E02E1DEEC0BF0202A6FB30AD0B6
:1014E0006DB308D068A302D01DB204D07BEC0BF022
:1014F0007CEC0DF04F6A34C04CF01DB44C2A20C077
:1015000050F0502A0BEC0AF0006E02E1DEEC0BF01A
:10151000202A6FB50AD06DB508D068A502D01DB4D9
:1015200004D07BEC0BF07CEC0DF04F6A34C04CF037
:101530001DB64C2A20C050F0502A0BEC0AF0006E69
:1015400002E1DEEC0BF0202A6FB70AD06DB708D0AD
:1015500068A702D01DB604D07BEC0BF07CEC0DF03C
:101560004F6A34C04CF01DB84C2A20C050F0502AAD
:101570000BEC0AF0006E02E1DEEC0BF0202A6FB9F2
:101580000AD06DB908D068A902D01DB804D07BEC90
:101590000BF07CEC0DF04F6A34C04CF01DBA4C2AB5
:1015A00020C050F0502A0BEC0AF0006E02E1DEEC95
:1015B0000BF0202A6FBB0AD06DBB08D068AB02D0FD
:1015C0001DBA04D07BEC0BF07CEC0DF04F6A34C0FC
:1015D0004CF01DBC4C2A20C050F0502A0BEC0AF0F5
:1015E000006E02E1DEEC0BF0202A6FBD0AD06DBD6B
:1015F00008D068AD02D01DBC04D07BEC0BF07CECB5
:101600000DF04F6A34C04CF01DBE4C2A20C050F083
:10161000502A0BEC0AF0006E02E1DEEC0BF06FBF1B
:1016200008D06DBF06D068AF02D01DBE02D07BECE3
:101630000BF01C6A12002B50346E900E345C13E0D9
:10164000980E345C03E1900E346E0DD0920E345C33
:1016500003E1930E346E07D09A0E345C02E04EEF35
:1016600006F0930E346E34C04CF0010E4F6E715183
:10167000506E050E236E7BEC0BF04F9012009A0E0D
:101680002B5C23E0920E2B5C1FE0010E3F6E3D5061
:10169000070B13E03F46E80410E03F46E8040DE086
:1016A0003F46E8040AE03F46E80407E03F46E80416
:1016B00004E03F46E80401E03F462BB003D03F5032
:1016C0001C1212003F1C1C1612003D96010E556E96
:1016D0003D5203E03D065546FBD75550711503E0DA
:1016E0009E0E4C6E02D09D0E4C6E2EC04FF02FC041
:1016F00050F0050E236E10C04DF011C04EF0235077
:101700004B6E0F0E4716B00E47120A0E186E3FECC6
:1017100008F012000A0E2E600BD02E5009E0E806E9
:10172000C60FA96E2F5005EC09F0A8EC08F01200C6
:101730000A0E29EC0DF012000A0E2E6015E02E5054
:1017400013E0E806C60FA96E00EC09F0506E2EC03B
:101750004FF02CC04DF02DC04EF0970E4C6E050E84
:10176000236E7FEC0BF012000A0E29EC0DF0120034
:1017700010502C5C04E111502D5C01E1000C010CB7
:10178000200E146ED8901446144601EE00F0060E9A
:10179000A96EA680A850EE6EA92A142EFAD71200C0
:1017A000C20E146E040EA96E000E05EC09F0A92AF3
:1017B000142EFAD724B2A8EC08F01200060EA96E77
:1017C000D89038463844020FA92600EC09F04F6E35
:1017D000A92A00EC09F04C86506E12000F0E8014FE
:1017E0003D6E1200196A050EA96E00EC09F03C6E00
:1017F000000824E0010E536E060EA96E00EC09F0FD
:101800004F6EA92A00EC09F0506EA92A00EC09F0ED
:10181000516EA92A00EC09F0526EA92AF20E4C6E04
:10182000080E236E7BEC0BF07CEC0DF053520AE0BB
:10183000192A3C50195C06E0532AE0D7070E29EC20
:101840000DF012001200050EA96E00EC09F03C6EBE
:101850000008F4E02E062E60F1D7E846E846060FB1
:10186000A96E00EC09F04F6EA92A00EC09F0506E49
:10187000A92A00EC09F0516EA92A00EC09F0526E79
:101880002E2A2EC053F0F20E4C6E080E236E7BEC07
:101890000BF01200050EA96E00EC09F04F6E740EED
:1018A0004C6E040E236E7BEC0BF012002E500008E1
:1018B000C5E0050EA96E00EC09F02EC019F019065E
:1018C0001960BCD71950020D2F50000818E02FC026
:1018D0001AF01A06020E1A6012D01A50F324860F5C
:1018E000A96E00EC09F0516EB50E4C6E2EC04FF093
:1018F0002FC050F0060E236E7BEC0BF01200060E8C
:1019000029EC0DF01200EF0E4C6E080EF76E200E53
:10191000F66E00EE4DF0070E146EA68E0900F5CFA0
:10192000EEFF142EFBD7A69E080E236E7FEC0BF065
:101930001200E20E4C6E100EF66E080EF76E00EE00
:101940004DF0070E146EA68E0900F5CFEEFF142E93
:10195000FBD7A69E080E236E7FEC0BF012002E50D4
:1019600000082FE0140E2EC019F01906196034D0AB
:101970009B0E4C6E070E196204D0F0EC0CF0506E0A
:1019800019D00E0E196204D0F7EC0CF0506E12D084
:101990000F0E196204D0FBEC0CF0506E0BD0200E31
:1019A000F66E080EF76EF86A2E04F626A68E08006C
:1019B000F5CF50F02EC04FF0050E236E7BEC0BF0F0
:1019C00012009B0E4C6E140E506E2EC04FF0050E82
:1019D000236E7BEC0BF012000A0E29EC0DF01200C6
:1019E000030E24B20409196E198619501200FFEC77
:1019F0000CF0F3501200FFEC0CF0F45012003F0E0C
:101A0000F86EFF0EF76EFE0EF66EA68E0900F5CF8D
:101A1000F3FF0800F5CFF4FF120085EC0DF0B60ED1
:101A20004C6EA50E4F6E050E506EF0EC0CF0516E24
:101A3000060E236E7BEC0BF0120029EC0DF04EEF3E
:101A400006F029EC0DF055EF07F029EC0DF054EFFE
:101A500007F04F6E6F0E4C6E040E236E7BEC0BF096
:101A60001200E1CF56F0E2CF57F0C00EF26E1382B3
:101A7000466A0E0E146E00EE58F0EE6A142EFDD774
:101A8000BF0E476EE00E486E400E236E3C0EB36EE6
:101A9000AF0EB26EB10EB16E0A0E186E7FEC0BF087
:101AA0004B6AA1A2FED7B190A192126A122A546A7F
:101AB000548010EE58F0E72804E1080E1226E12ABF
:101AC000FAD75450E71403E05436122AFAD7640EBA
:101AD00012600CD0000EA96E125005EC09F07BECE0
:101AE00008F056C0E1FF57C0E2FF1200070E29ECD4
:101AF0000DF01268129EEED70A0E156E146A142E9F
:101B00007FEF0DF0152EFAD71200640E166E7CECE6
:081B10000DF0162EFCD71200A7
:020000040030CA
:0300010006061ED2
:020005008081F8
:060008000FC00FE00F40E5
:0200000400F00A
:060000007F00000000007B
:0A0086000000000000000000000070
:100090000000000000000000000000000000000060
:1000A0000000000000000000000000000000000050
:1000B0000000000000000000000000000000000040
:1000C0000000000000000000000A0A00000000001C
:0600D0000000000000002A
:0200FE00000000
:00000001FF
