:020000040000FA
:040000001FD00ED02F
:0400080004EF04F00D
:040018000CEF04F0F5
:10002000A66E05A01200550EA76EAA0EA76EA68298
:100030000000A6B2FED712000A26D8B00B2A120082
:10004000A66AA968AA68A680A83C00EF04F0066A20
:100050001C0E056E0F019394000E006F080E016FC9
:10006000E81E056F000E026F070E036FFF0E186F7C
:10007000EB0E196FFF0E1A6FF80E1B6F030E706EEA
:100080009E0E716E030E726E200E736E6F6A0E0EF0
:10009000C16E939E939C818E818C609E040060AEA5
:1000A000FDD70FEE66F065500F0B096EF46EF5E0AC
:1000B00064B02BD010EE01F0EECFE6FFF42EFCD7AB
:1000C0000650EBE0010AD8A407D0A968AA68A86A7C
:1000D000040EA6DF819CFF000650020A05E10B6AB0
:1000E0000A6A0C900C6AD9D70650030A0AE1075035
:1000F0000A2606E108500B2203E10CB001D073D0B0
:1001000076D00650040AC9E176D00350F86EF00BA1
:10011000F36E0250F76EAA6E0150F66EA96E05A638
:1001200005D009500126E86A02220322300EF3604E
:1001300001D008D0F350300A01E12AD0F350F00A80
:10014000ACE132D005A405D0F6503F0B02E1940E8D
:1001500067DF05B2A2D7F650070B9FE1080EF46ED9
:10016000EE50F56E69DF0D00F42EFAD7080EF46E2E
:100170000A00ED50F42EFCD7840E52DF080EF46E08
:100180000900F550EE18D8A40C80F42EF9D785D7C5
:10019000EF50F56E51DF0C00C40E42DF0900F55040
:1001A000EE18F42EF5D779D7EF50A86E45DF040E80
:1001B00037DFA66AA680A850EE18D8A40C80A94AFA
:1001C000AA2AF42EF1D769D740B7FED7800E416F27
:1001D000080E426F000E436F040E446F448164A00A
:1001E000449140875AD7010E466F456FEDD7466B55
:1001F000010E456FE9D7020E466F010E456FE4D739
:06080000000005EF08F006
:0408080020EF04F0E9
:0C08100041434335202020006EEF04F02F
:10082000A5520280030C020B010100080000000029
:100830000000010000000000140010080000CC01BE
:10084000006ED8CF01F06FCF0FF06ECF10F0FACF5F
:1008500003F0FA6AE9CF05F0EACF06F0E1CF07F03E
:10086000E2CF08F00A0EFA6E10500E0BF92618D0DF
:1008700006D016D015D014D013D012D011D00F013D
:1008800030AB08D0205206E0202E04D030973F0E27
:1008900031173087509F0001609E749E749C01D078
:1008A000609EA46A6F50F10B0F106F6E03C0FAFFC9
:1008B00005C0E9FF06C0EAFF07C0E1FF08C0E2FF8C
:1008C000005001C0D8FF100021B212001AA212007D
:1008D0000F0120B7FED7208700011200006ED8CF8D
:1008E00001F0E0CF02F0EACF06F0E9CF05F0E2CF69
:1008F00008F0E1CF07F000019EA043D0E00ECE6EDD
:100900009E6A416A426A655105E0652F03D04180C5
:1009100080C065F0665105E0662F03D0418281C03A
:1009200066F0675105E0672F03D0418482C067F00D
:10093000685105E0682F03D0418683C068F0695193
:1009400005E0692F03D0418884C069F06A5105E051
:100950006A2F03D0418A85C06AF06B5105E06B2F86
:1009600003D0418C86C06BF06C5105E06C2F03D036
:10097000418E87C06CF0416601D039D04150821A57
:1009800036D0A192A092090EFA6E3150E846F926AF
:1009900007D00AD00ED012D016D01AD01ED022D036
:1009A00030502A1432E1312A304630502A143DE1C9
:1009B000312A304630502A1448E1312A304630502E
:1009C0002A1453E1312A304630502A145EE1312A8C
:1009D000304630502A1469E1312A304630502A140A
:1009E00074E1312A304630502A147FE1000006C0FD
:1009F000EAFF05C0E9FF08C0E2FF07C0E1FF02C04F
:100A0000E0FF005001C0D8FF10006DAFCCD73050D0
:100A10002F1403E16DBD01D005D06DBD03D085EC71
:100A20000FF073D088EC0FF070D06EAFC1D730509C
:100A30002F1403E16EBD01D005D06EBD03D085EC4F
:100A40000FF063D088EC0FF060D06FAFB6D73050A6
:100A50002F1403E16FBD01D005D06FBD03D085EC2D
:100A60000FF053D088EC0FF050D070AFABD73050B0
:100A70002F1403E170BD01D005D070BD03D085EC0B
:100A80000FF043D088EC0FF040D071AFA0D73050BA
:100A90002F1403E171BD01D005D071BD03D085ECE9
:100AA0000FF033D088EC0FF030D072AF95D73050C4
:100AB0002F1403E172BD01D005D072BD03D085ECC7
:100AC0000FF023D088EC0FF020D073AF8AD73050CE
:100AD0002F1403E173BD01D005D073BD03D085ECA5
:100AE0000FF013D088EC0FF010D074AF7FD73050D8
:100AF0002F1403E174BD01D005D074BD03D085EC83
:100B00000FF075D788EC0FF072D7312A7551B26AA1
:100B1000B36EA0826CD721B019D074BE01D016D0AC
:100B20006F500F0B0F6E7750F00B0F10776E62B691
:100B30000CD065AC03D064EC04F007D0655201E141
:100B400004D027EC0FF0218001D0609E1AB205D0AE
:100B5000A1A202D0817EA1920DD0F2A40BD021A43B
:100B600001D0817CF29421A605D01F2E03D00A0E5D
:100B70001F6E520E80B467D0640E1B6E1C6A1D6A15
:100B80001D2EC0EF05F021A404D0F2A402D0817C78
:100B9000F2941C2EC0EF05F080B440D01B2EC0EFA5
:100BA00005F01AA255D0216A819C818EF26A010E4D
:100BB000196E010EA96E000EC8EC09F0510E9DECE5
:100BC00009F0166A176A80A4FED76BEC0EF080A4B9
:100BD000FAD7020EA96E000EC8EC09F0A92A000E81
:100BE000C8EC09F01AA20DD0010EA96E000EC8ECD7
:100BF00009F0216A1A92819C818EC00EF26E8BEFF1
:100C000005F0010EA96E010EC8EC09F01A82A7ECDE
:100C10000EF021929CEC09F021841DD021A40CD06F
:100C20002194818C520E9DEC09F0010EA96E080EE4
:100C3000216EC8EC09F007D02184A7EC0EF02192B8
:100C40009CEC09F008D021A206D02192218403D087
:100C50002182819EB8D721A05ED745D021A8C7D0D8
:100C6000218A27EC0FF06DD121A8C1D027EC0FF01D
:100C7000605103E06007030E606110D1218C61D1E7
:100C8000EAEC09F0000803E134EC0AF0B0D03FEFE1
:100C900007F0EAEC09F0000807E169CF62F06ACFDB
:100CA00060F079EC0DF0A3D03FEF07F068EF07F0AC
:100CB00021A49DD0B4EC0DF09AD021A498D0CAEC18
:100CC0000DF095D016501724D8A428EC0EF08FD034
:100CD0005C6A5D6AFDD077EF07F080EF07F087EF81
:100CE00007F02EEF06F0900E5B5CE0E0910E5B5C8F
:100CF000DDE0920E5B5CDAE0980E5B5CE9E0990E59
:100D00005B5CE6E09A0E5B5CD1E05C0E5B5C50E005
:100D1000730E5B5C5DE01AA26AD0420E5B5C6BE016
:100D20000D0E5B5CCFE0100E5B5CC2E0110E5B5CF5
:100D3000C4E0530E5B5C37E0540E5B5C2EE0550E56
:100D40005B5C29E0560E5B5C7AE0710E5B5CC5E093
:100D5000960E5B5CC0E0D20E5B5C21E0950E5B5CA6
:100D6000C0E0B20E5B5C80E0570E5B5CB8E0720ED8
:100D70005B5C17E0580E5B5C18E09C0E5B5C89E0E6
:100D80005D0E5B5C04E0750E5B5C03E030D058EFF9
:100D900007F009EF07F02FEF07F028EF07F043EF18
:100DA00007F051EF07F021EF07F040EF06F01FD0FA
:100DB0001AA20AD0EAEC09F0000861E1FF0EA96E60
:100DC000FF0EC8EC09F0FF005C505D2458E1F6D737
:100DD0001AA207D0EAEC09F0000851E1E0EC0DF0AE
:100DE00006D05C505D244BE1E0EC0DF000D0609E3D
:100DF00021908BEF05F021A4FAD766EC09F021943D
:100E000021860A0E1F6E520E9DEC09F0818C819E88
:100E1000EED7EAEC09F0000832E15FC019F0F4EC1B
:100E20000EF0520E9DEC09F0F7EF06F021A4DFD78B
:100E3000500E396E030E246EDBEC09F0D8D799EF13
:100E400007F0EAEC09F000081AE12188818CCFD77D
:100E5000EAEC09F0000813E12198219AC8D7EAECDE
:100E600009F000080CE121A80BD085EC0BF0B6ECE2
:100E70000FF067EC0FF0590E9DEC09F0EED7B7D7E5
:100E8000020E4EEF0EF021A8B2D727EC0FF0605102
:100E900005E06007030E606101D053D0060E4EEFEF
:100EA0000EF0EAEC09F00008EAE150EC0DF09FD7F3
:100EB000EAEC09F000080AE1A7EC0EF0520E9DECF6
:100EC00009F0609E080E216EF7EF06F03FEF07F085
:100ED00027EC0FF01AA205D01FEC0CF000081EE062
:100EE00086D780A22ED0F8D7030E4EEF0EF0EAEC94
:100EF00009F00008C4E172EC0EF067EC0FF077D750
:100F0000EAEC09F00008BBE181EC0EF070D7EAECE6
:100F100009F00008B4E1F0EC0CF069D7F6EC0BF046
:100F2000EECF2AF0EECF2CF0EECF2DF091EC08F0C2
:100F30005ED7EAEC09F00008A2E1A8EC0DF057D763
:100F400000D01FEC0CF000081FE01AB209D080A0FE
:100F500054D040EC0AF0000816E0040E52EF0EF0F8
:100F600021BC0ED021BA48D0020E605D02E142ECF5
:100F70000FF040EC0AF0000806E0040E56EF0EF009
:100F8000050E56EF0EF039D01AB205D080B014D04D
:100F9000D9EC0AF031D021BC17D021AA0DD0F6EC43
:100FA0000BF0020EEBCF2DF0A7EC0FF0D9EC0AF00E
:100FB000590E9DEC09F020D0020E605D02E142EC7A
:100FC0000FF040EC0AF0DFD7F6EC0BF060C03EF01B
:100FD0003E2A6051EBCF3FF0D30E396E5CC03AF041
:100FE0005DC03BF05EC03CF05FC03DF0070E246E7C
:100FF000DFEC09F001D02198219C609E2190FA6AD3
:10100000F7EF06F0060E56EF0EF000EE00F0EE6A77
:10101000E9AEFDD7F26AC26A0F0EC16E070E926E7C
:101020003B0E936E819E819C8184000E946E826A39
:10103000D08EE06AA66A216A206A6F8EB00E776E43
:10104000778A7750126E0F01F86B606A506B206BD5
:10105000306B406B506B606B706B0001030E706EF9
:101060009E0E716E030E726E200E736E240E606EF5
:101070000FEE18F0EE6A200EE962FCD76F6ABD6AC7
:10108000840ED56EA10ECD6EB10ECF6EE00ECE6E7B
:10109000336A230EA56E9F6AA26AA06A010E9D6E36
:1010A000010E196EF16AF06A200EA36E9E6AA16AA3
:1010B000609E749E749CA46A50EC0BF01A6A010E38
:1010C000A96EC3EC09F0216E000801E119D01A8263
:1010D00079EC09F067EC0FF0900E5B6E77C02AF0A8
:1010E00076C02CF0761D2F14E81E2C122D6A91EC80
:1010F00008F0C00EF26E819E818C21908BEF05F07E
:101100001A92166A176A80A289EF08F080A085EC0F
:101110000BF067EC0FF0C00EF26E819C818E8BEFAE
:1011200005F05BB279D0030E2D14030A6AE02AC0E1
:101130002BF02CC047F02B1C82142B6E2A502C1A3B
:101140005BA005D02A502C182B10456E04D02A50D5
:101150002C142B10456EF20EA96EC3EC09F02F6E05
:101160002A1C2F1645502F102F6EC8EC09F0010EC7
:10117000306E316A7551FF08B36EB26A9D900000FF
:10118000486A010E496E00EE65F010EE80F0471CD3
:101190002A14466E49502A1429E0E60E4824A96E06
:1011A000C3EC09F02B6EE89EE86601D01CD0E82A5B
:1011B000226E2BAE08D05BB014D0485022C0EBFF9B
:1011C00022C0E3FF13D05BB004D0495047140BE1B9
:1011D00003D04950471407E0485022C0EBFFE36AB0
:1011E00005D0491C45164850EB6AE36A482A49363F
:1011F000D1E32A1C8216455082129D80A082B180C4
:101200001200010E306E316A7551FF08B36EB26A7A
:101210002A68A082B1801200E9CF0BF0EACF0CF06F
:10122000E1CF0DF0E2CF0EF02DAE12001C0E2D140A
:101230002E6E040E1E6E10EE3AF000EE5CF0EECF55
:10124000E6FF1E2EFCD72E50E842E8421E6E1E2AF4
:10125000306A30801E2E01D002D03046FBD730508D
:101260002F1408E15BB603D0940E396E0FD09E0E9A
:10127000396E07D05BB603D0930E396E07D09D0E42
:10128000396E050E246EDBEC09F004D0050E246ED9
:10129000DFEC09F00BC0E9FF0CC0EAFF0DC0E1FF75
:1012A0000EC0E2FF120000EE33F01FEE30F00F012F
:1012B00030B7FED70001EE50E66E410EE962FBD773
:1012C0000F0130B7FED73087000112005CC016F066
:1012D0005DC017F0020EA96E5C50C8EC09F0A92A97
:1012E0005D50C8EC09F0010EA96E080EC8EC09F0BB
:1012F0001200000EA96EA680A850136EA7EC09F08C
:10130000F00E3416145034121550356E020EA96EBC
:10131000C3EC09F0166EA92AC3EC09F0176E0F0191
:1013200020B7FED7216B1450216F1550226FB00EDD
:101330002113256B00011200500E396E16C03AF0D1
:1013400017C03BF0030E246EDBEC09F0120013C053
:1013500015F0153A1544E00B156E13C014F0144245
:10136000144214400F0B146E120062CF15F0153AA0
:101370001540070B156E61CF14F014461446144443
:10138000780B15101200A69EA69CA680A8501200ED
:10139000A86EA69EA69CA684F2CF11F0F26A550E06
:1013A000A76EAA0EA76EA682A6B2FED7A198A69493
:1013B00011C0F2FF120016C03AF017C03BF02450E3
:1013C000386E0F0E3416B00E34120A0E206E53EC27
:1013D00009F0120016505C5C04E117505D5C01E1FD
:1013E000000C010C200E1B6ED8901B461B4602EE13
:1013F00000F0060EA96EA680A850EE6EA92A1B2E3C
:10140000FAD7200E1B6ED8901B4602EE80F0260EF7
:10141000A96EA680A850EE6EA92A1B2EFAD712003C
:10142000C20E1B6E040EA96E000EC8EC09F0A92AAC
:101430001B2EFAD7800E1B6E02EE00F0EE6A1B2EFA
:10144000FDD71200130E8114226E236E2342234017
:10145000040B2210070B226E010E2A6E225203E0AB
:101460002A462206FBD71200050EA96EC3EC09F02E
:101470003C6E740E396E040E246EDBEC09F0120023
:101480001AB203D080A0000C02D021BA000C1FECCD
:101490000CF0000825E1F6EC0BF058B002D01AA2CF
:1014A0000BD0605161C0EBFF8AEC0CF058B0000C1F
:1014B000590E9DEC09F0000C22EC0AF02AC02BF02A
:1014C0002B50EF10EE6E2A6E81BA07D02B50EF1220
:1014D000EFCF2CF08AEC0CF0000C2B1CEF16F8D799
:1014E000040EA96EC3EC09F0000801E1010CDE0E48
:1014F000A96EC3EC09F04C6EDF0EA96EC3EC09F0C7
:101500004D6E526601D00DD0EEEC0BF05350B8EC9E
:101510000CF0060EE9264CC0EEFF4DC0EEFF84EC49
:101520000CF0F6EC0BF04D50B8EC0CF0040EE92684
:10153000DE0EA96EEE50C8EC09F0DF0EA96EEE507B
:10154000C8EC09F054C0A9FF4C50C8EC09F0A92A16
:101550004D50C8EC09F04D50B8EC0CF05CC0EEFFFB
:101560005DC0EEFF5EC0EEFF5FC0EEFF52C0EEFF5B
:1015700053C0EEFFEE6AEE6A080E636F000EEB6A70
:10158000E82A632FFCD75550D60FA96EC3EC09F09B
:10159000E82AC8EC09F0050EA96EC3EC09F0010FAA
:1015A000C8EC09F0A906C3EC09F0E806C8EC09F09C
:1015B00074D71FEC0CF0000801E01200DE0EA96EDB
:1015C000C3EC09F0566EDF0EA96EC3EC09F0576E3E
:1015D000F6EC0BF04D50B8EC0CF0040EE926EFCF12
:1015E00050F056C0EEFFEFCF51F057C0EEFFEFCFF7
:1015F0004EF0EE6AEFCF4FF0EE6ADE0EA96E4C5061
:10160000C8EC09F0DF0EA96E4D50C8EC09F08AEC69
:101610000CF04E6601D011D04EC04CF04FC04DF0D2
:10162000F6EC0BF04D50B8EC0CF0040EE92650C06F
:10163000EEFF51C0EEFF8AEC0CF054C0A9FF5050F1
:10164000C8EC09F0A92A5150C8EC09F0506601D045
:1016500011D050C04CF051C04DF0F6EC0BF04D5095
:10166000B8EC0CF0060EE9264EC0EEFF4FC0EEFFC0
:101670008AEC0CF05550D60FA96EC3EC09F0E806C1
:10168000C8EC09F0050EA96EC3EC09F0E806C8EC39
:1016900009F0A906C3EC09F0010FC8EC09F012002B
:1016A000586A040EA96EC3EC09F0226EA92AC3EC95
:1016B00009F02226800E226201D01200050EA96ECA
:1016C000C3EC09F0266E85EC0BF0266601D0120003
:1016D000588012EE00F022EE80F0E6CF5CF0E6CF0C
:1016E0005DF0E6CF5EF0E6CF5FF0000E606FDECF1C
:1016F00061F047EC0AF0010E606FDECF61F047EC5D
:101700000AF0262EEAD7586A1200050EA96E000EBE
:10171000C8EC09F0800EA906C8EC09F0100E1B6E8B
:10172000C60EA96E000EC8EC09F0A92A1B2EFAD726
:10173000080E1B6ED60EA96E000EC8EC09F0A92A81
:101740001B2EFAD759EC0CF0DE0EA96E300E4C6E43
:10175000C8EC09F0DF0EA96E000E4D6EC8EC09F062
:101760007CEC0CF04E6A4F6A800E1B6E4DC022F06E
:101770004CC023F02250B8EC0CF0100E2226000EC4
:101780002322EE6AEE6AEE6AEE6A1B061BE023C0B5
:10179000EEFF22C0EEFF4EC0EEFF4FC0EEFF4CC08A
:1017A0004EF04DC04FF01B50030B05E0100E4D26C0
:1017B000000E4C22DFD78AEC0CF0100E4D26000EE6
:1017C0004C22D4D7226A22C0EEFF22C0EEFF4EC0C8
:1017D000EEFF4FC0EEFF8AEC0CF01200C00E531467
:1017E000F66E5250F76E400E636F08D0C00E4D1467
:1017F000F66E4C50F76EF86A400E636FF86AEACFE7
:101800005AF0E9CF59F001EE00F00900F550EE6E04
:10181000632FFBD759C0E9FF5AC0EAFF1200F86AEC
:101820004CC0F7FF4DC0F6FF100E636FE7D7F86AA4
:101830004CC0F7FF4DC0F6FF080E636FDFD7070EF1
:101840005F14226E556E2246C60E2224546EA96E77
:10185000C3EC09F04C6E526EA92AC3EC09F04D6E30
:10186000536E4C6601D0010C4D50F66E4C50F76E25
:10187000F86A256A0900F5505C62252A0900F550CE
:101880005D62252A0900F5505E62252A0900F5509F
:101890005F62252A256606D04D50B8EC0CF0080E84
:1018A000E926000C0900F5504C6E0900F5504D6E0C
:1018B000D8D7200E1B6E000EF66E300EF76EF86A4B
:1018C0006AEC0CF01B2E01D01200400EF626000E22
:1018D000F722F6D7A68EA69CA684A688F2CF11F092
:1018E000F26A550EA76EAA0EA76EA682000000002F
:1018F000000011C0F2FF120001EE00F0400E636F15
:10190000EE6A632FFDD71200C00E5314F66E5250CC
:10191000F76E05D0C00E4D14F66E4C50F76EF86A97
:101920006AEC0CF001EE00F0020E646F1F0E636FA4
:10193000EE50F56E0D00632FFBD7EE50F56E0C00E8
:10194000A8EC0CF0F62A000EF722642FEFD7120055
:10195000A68EA69CA698A684F2CF11F0F26A550E28
:10196000A76EAA0EA76EA682000011C0F2FF120099
:10197000E83A030BE86603D001EE00F01200E80637
:10198000E86603D001EE10F01200E806E86603D026
:1019900001EE20F0120001EE30F012001FEC0CF00E
:1019A000000803E0616B606B08D00FEC0CF001EEF7
:1019B00008F06051EB50616F602BD30E396E00C19F
:1019C0003AF001C13BF002C13CF003C13DF060C000
:1019D0003EF061C03FF0070E246EDFEC09F012000C
:1019E000226A050EA96EC3EC09F000082CE0406ADB
:1019F000080E266EC60EA96EC3EC09F04C6EA92A1D
:101A0000C3EC09F04D6E4C6604D0260620E0A92AEE
:101A1000F3D717EC0CF0402A00C13CF001C13DF0B7
:101A200002C13EF003C13FF0F20E396E080E246E83
:101A3000DBEC09F062EC0EF062EC0EF004C14CF04D
:101A400005C14DF0E0D7070E5AEC0EF0120012005F
:101A5000556A266A276A5550D60FA96EC3EC09F05D
:101A6000000F05E027262750626101D004D027C06F
:101A700026F0552AF0D75544C60FA96EC3EC09F0DD
:101A80004C6EA92AC3EC09F04D6E6251266012001B
:101A9000262A17EC0CF004C14CF005C14DF0F5D727
:101AA000050EA96EC3EC09F000081FE062511DE0AD
:101AB0006207050EA96EC3EC09F0626116D028EC2E
:101AC0000DF017EC0CF000C13CF001C13DF002C17B
:101AD0003EF003C13FF0622B62C040F0F20E396E5F
:101AE000080E246EDBEC09F01200070E5AEC0EF023
:101AF0001200050EA96EC3EC09F00008F6E0625171
:101B0000F4E06207050EA96EC3EC09F06261EDD73F
:101B100060511AE06007030E606116D028EC0DF0EA
:101B20000FEC0CF001EE08F06051EBCF3EF0602BB3
:101B3000622BB50E396E62C03CF060C03DF0060EFF
:101B4000246EDBEC09F01200060E5AEC0EF01200C7
:101B5000040EA96EC3EC09F03C6E700E396E040ED3
:101B6000246EDBEC09F01200EF0E396E200EF66EDB
:101B7000080EF76E00EE3AF0070E1B6EA68E0900F7
:101B8000F5CFEEFF1B2EFBD7A69E080E246EDFECD2
:101B900009F01200E20E396E100EF66E080EF76EA6
:101BA00000EE3AF0070E1B6EA68E0900F5CFEEFF91
:101BB0001B2EFBD7A69E080E246EDFEC09F0120048
:101BC0005E5000082FE0140E5EC022F02206226054
:101BD00034D09B0E396E070E226204D021EC0EF039
:101BE0003D6E19D00E0E226204D038EC0EF03D6E20
:101BF00012D00F0E226204D03CEC0EF03D6E0BD0E2
:101C0000200EF66E080EF76EF86A5E04F626A68EB3
:101C10000800F5CF3DF05EC03CF0050E246EDBEC15
:101C200009F012009B0E396E140E3D6E5EC03CF042
:101C3000050E246EDBEC09F012000A0E5AEC0EF0D1
:101C40001200010E1AB20409226E228622501200DE
:101C50006BEC0EF0B60E396EA50E3C6E020E3D6EAC
:101C600021EC0EF03E6E060E246EDBEC09F0120045
:101C700040EC0EF0F350120040EC0EF0F450120065
:101C80003F0EF86EFF0EF76EFE0EF66EA68E090082
:101C9000F5CFF3FF0800F5CFF4FF12005AEC0EF079
:101CA000F7EF06F05AEC0EF0FDEF07F05AEC0EF0ED
:101CB000FCEF07F03C6E6F0E396E040E246EDBEC09
:101CC00009F012000A0E1C6E1B6A1B2E65EF0EF047
:101CD0001C2EFAD71200640E1D6E62EC0EF01D2E43
:101CE000FCD712000D0E5E6012005E5009E0E8069F
:101CF000E60FA96E5F50C8EC09F0590E9DEC09F093
:101D000012000D0E5E6015E05E5013E0E806E60F6F
:101D1000A96EC3EC09F03D6E5EC03CF05CC03AF0C9
:101D20005DC03BF0970E396E050E246EDFEC09F0B6
:101D300012003C6A3D6AF2D7080E1B6EE60EA96ED1
:101D4000000EC8EC09F0A92A1B2EFAD71200E1CF29
:101D50004AF0E2CF4BF021820E0E1B6E00EE88F0AF
:101D6000EE6A1B2EFDD7A0923C0EB36EAF0EB26E84
:101D7000B10EB16EA1920F01BF0E316FE00E326F46
:101D8000400E356F30B7FED7308730B7FED7356B92
:101D90000001A1B215D074BE01D0FBD76F500F0B5C
:101DA0000F6E7750F00B0F10776E62B607D021A23E
:101DB00005D0655203E10AEC0FF000D0609EE9D730
:101DC000B190A192196A192A496A498010EE88F0E7
:101DD000E72804E1080E1926E12AFAD74950E7144A
:101DE00003E04936192AFAD7640E19600DD0000EA7
:101DF000A96E1950C8EC09F0195079EC09F04AC0E5
:101E0000E1FF4BC0E2FF1200070E5AEC0EF019681A
:101E1000199EEDD7656612006138E832780B226EA4
:101E20006238E842070B2210196E10EE88F0496AFA
:101E30004980080E196403D0195EE12AFBD7194EB8
:101E400002D04946FCD74950E712609E120066CF87
:101E50005BF067CF5CF068CF5DF069CF5EF06ACF72
:101E60005FF06BCF60F06CCF61F0980E665C07E0BE
:101E7000990E665C04E09A0E665C01E012005C6AF2
:101E80005D6A120061AF120061C02AF061511C0B43
:101E9000060FA96E5C50C8EC09F0A92A5D50C8EC89
:101EA00009F0A92A5E50C8EC09F0A92A5F50C8ECD5
:101EB00009F02A501C0BE842E842260FA96E2A506E
:101EC000C8EC09F02AC061F067EC0FF01200080EB0
:101ED0001B6E260EA96E10EE6DF0C3EC09F0E66ED7
:101EE000A92A1B2EFAD7EE0EA96E040E1B6E10EE59
:101EF00075F0C3EC09F0E66EA92A1B2EFAD7F20E94
:101F0000A96EC3EC09F02F6E1200900E396E02D04C
:101F1000910E396E00EE3AF0060EA96E3150E84689
:101F2000E846A926040E1E6E050E246EC3EC09F0C9
:101F3000EE6EA92A1E2EFAD73A5206E13B5204E170
:101F40003986DBEC09F01200DFEC09F012002D50AD
:101F5000E8AE12001C0BE842E8422A6E260FA96E7A
:101F6000E86AC8EC09F067EC0FF01200260EA96EC3
:101F7000080E1B6EE86AC8EC09F0A92A1B2EFAD7D6
:021F800012004D
:020000040030CA
:0300010006061ED2
:020005008081F8
:060008000FC00FE00F40E5
:0200000400F00A
:060000007F00000000007B
:0A00260000000000000000000000D0
:06003000000000000000CA
:0A00C6000000000000000000000030
:1000D0000000000000000000000000000000000020
:1000E00000000000000000000000000000000A0006
:0400F000FFFF00000E
:0200FE00000000
:00000001FF
